{
  "contractName": "ProductLot",
  "abi": [
    {
      "inputs": [
        {
          "internalType": "string",
          "name": "_productName",
          "type": "string"
        },
        {
          "internalType": "uint256",
          "name": "_quantity",
          "type": "uint256"
        },
        {
          "internalType": "uint256",
          "name": "_productionDate",
          "type": "uint256"
        },
        {
          "internalType": "uint256",
          "name": "_lotNumber",
          "type": "uint256"
        }
      ],
      "stateMutability": "nonpayable",
      "type": "constructor"
    },
    {
      "inputs": [],
      "name": "approvedForSale",
      "outputs": [
        {
          "internalType": "bool",
          "name": "",
          "type": "bool"
        }
      ],
      "stateMutability": "view",
      "type": "function"
    },
    {
      "inputs": [],
      "name": "lotNumber",
      "outputs": [
        {
          "internalType": "uint256",
          "name": "",
          "type": "uint256"
        }
      ],
      "stateMutability": "view",
      "type": "function"
    },
    {
      "inputs": [],
      "name": "numPatients",
      "outputs": [
        {
          "internalType": "uint256",
          "name": "",
          "type": "uint256"
        }
      ],
      "stateMutability": "view",
      "type": "function"
    },
    {
      "inputs": [],
      "name": "owner",
      "outputs": [
        {
          "internalType": "address",
          "name": "",
          "type": "address"
        }
      ],
      "stateMutability": "view",
      "type": "function"
    },
    {
      "inputs": [
        {
          "internalType": "address",
          "name": "",
          "type": "address"
        },
        {
          "internalType": "uint256",
          "name": "",
          "type": "uint256"
        },
        {
          "internalType": "uint256",
          "name": "",
          "type": "uint256"
        }
      ],
      "name": "patientPrescriptions",
      "outputs": [
        {
          "internalType": "uint256",
          "name": "expiryDate",
          "type": "uint256"
        },
        {
          "internalType": "uint256",
          "name": "quantity",
          "type": "uint256"
        },
        {
          "internalType": "string",
          "name": "drugName",
          "type": "string"
        }
      ],
      "stateMutability": "view",
      "type": "function"
    },
    {
      "inputs": [
        {
          "internalType": "uint256",
          "name": "",
          "type": "uint256"
        }
      ],
      "name": "patients",
      "outputs": [
        {
          "internalType": "string",
          "name": "name",
          "type": "string"
        },
        {
          "internalType": "uint256",
          "name": "age",
          "type": "uint256"
        },
        {
          "internalType": "uint256",
          "name": "numPatients",
          "type": "uint256"
        }
      ],
      "stateMutability": "view",
      "type": "function"
    },
    {
      "inputs": [
        {
          "internalType": "address",
          "name": "",
          "type": "address"
        },
        {
          "internalType": "uint256",
          "name": "",
          "type": "uint256"
        }
      ],
      "name": "prescriptions",
      "outputs": [
        {
          "internalType": "uint256",
          "name": "expiryDate",
          "type": "uint256"
        },
        {
          "internalType": "uint256",
          "name": "quantity",
          "type": "uint256"
        },
        {
          "internalType": "string",
          "name": "drugName",
          "type": "string"
        }
      ],
      "stateMutability": "view",
      "type": "function"
    },
    {
      "inputs": [],
      "name": "productName",
      "outputs": [
        {
          "internalType": "string",
          "name": "",
          "type": "string"
        }
      ],
      "stateMutability": "view",
      "type": "function"
    },
    {
      "inputs": [],
      "name": "productionDate",
      "outputs": [
        {
          "internalType": "uint256",
          "name": "",
          "type": "uint256"
        }
      ],
      "stateMutability": "view",
      "type": "function"
    },
    {
      "inputs": [],
      "name": "quantity",
      "outputs": [
        {
          "internalType": "uint256",
          "name": "",
          "type": "uint256"
        }
      ],
      "stateMutability": "view",
      "type": "function"
    },
    {
      "inputs": [
        {
          "internalType": "address",
          "name": "newOwner",
          "type": "address"
        }
      ],
      "name": "changeOwner",
      "outputs": [],
      "stateMutability": "nonpayable",
      "type": "function"
    },
    {
      "inputs": [],
      "name": "getProductDetails",
      "outputs": [
        {
          "internalType": "string",
          "name": "",
          "type": "string"
        },
        {
          "internalType": "uint256",
          "name": "",
          "type": "uint256"
        },
        {
          "internalType": "uint256",
          "name": "",
          "type": "uint256"
        },
        {
          "internalType": "uint256",
          "name": "",
          "type": "uint256"
        },
        {
          "internalType": "bool",
          "name": "",
          "type": "bool"
        }
      ],
      "stateMutability": "view",
      "type": "function"
    },
    {
      "inputs": [],
      "name": "approveSale",
      "outputs": [],
      "stateMutability": "nonpayable",
      "type": "function"
    },
    {
      "inputs": [
        {
          "internalType": "uint256",
          "name": "drugIndex",
          "type": "uint256"
        },
        {
          "internalType": "uint256",
          "name": "_expiryDate",
          "type": "uint256"
        },
        {
          "internalType": "uint256",
          "name": "_quantity",
          "type": "uint256"
        },
        {
          "internalType": "string",
          "name": "_drugName",
          "type": "string"
        }
      ],
      "name": "setPrescriptionExpiryDate",
      "outputs": [],
      "stateMutability": "nonpayable",
      "type": "function"
    },
    {
      "inputs": [
        {
          "internalType": "address",
          "name": "patient",
          "type": "address"
        },
        {
          "internalType": "uint256",
          "name": "drugIndex",
          "type": "uint256"
        },
        {
          "internalType": "uint256",
          "name": "_expiryDate",
          "type": "uint256"
        },
        {
          "internalType": "uint256",
          "name": "_quantity",
          "type": "uint256"
        },
        {
          "internalType": "string",
          "name": "_drugName",
          "type": "string"
        }
      ],
      "name": "checkPrescription",
      "outputs": [
        {
          "internalType": "uint256",
          "name": "",
          "type": "uint256"
        }
      ],
      "stateMutability": "nonpayable",
      "type": "function"
    },
    {
      "inputs": [
        {
          "internalType": "uint256",
          "name": "patientId",
          "type": "uint256"
        }
      ],
      "name": "getPatientDetails",
      "outputs": [
        {
          "internalType": "string",
          "name": "",
          "type": "string"
        },
        {
          "internalType": "uint256",
          "name": "",
          "type": "uint256"
        },
        {
          "internalType": "uint256",
          "name": "",
          "type": "uint256"
        }
      ],
      "stateMutability": "view",
      "type": "function"
    },
    {
      "inputs": [
        {
          "internalType": "string",
          "name": "name",
          "type": "string"
        },
        {
          "internalType": "uint256",
          "name": "age",
          "type": "uint256"
        }
      ],
      "name": "addPatient",
      "outputs": [],
      "stateMutability": "nonpayable",
      "type": "function"
    }
  ],
  "bytecode": "0x60806040523480156200001157600080fd5b50604051620023e5380380620023e5833981810160405281019062000037919062000291565b336000806101000a81548173ffffffffffffffffffffffffffffffffffffffff021916908373ffffffffffffffffffffffffffffffffffffffff160217905550836001908162000088919062000563565b508260028190555081600381905550806004819055506000600560006101000a81548160ff021916908315150217905550505050506200064a565b6000604051905090565b600080fd5b600080fd5b600080fd5b600080fd5b6000601f19601f8301169050919050565b7f4e487b7100000000000000000000000000000000000000000000000000000000600052604160045260246000fd5b6200012c82620000e1565b810181811067ffffffffffffffff821117156200014e576200014d620000f2565b5b80604052505050565b600062000163620000c3565b905062000171828262000121565b919050565b600067ffffffffffffffff821115620001945762000193620000f2565b5b6200019f82620000e1565b9050602081019050919050565b60005b83811015620001cc578082015181840152602081019050620001af565b60008484015250505050565b6000620001ef620001e98462000176565b62000157565b9050828152602081018484840111156200020e576200020d620000dc565b5b6200021b848285620001ac565b509392505050565b600082601f8301126200023b576200023a620000d7565b5b81516200024d848260208601620001d8565b91505092915050565b6000819050919050565b6200026b8162000256565b81146200027757600080fd5b50565b6000815190506200028b8162000260565b92915050565b60008060008060808587031215620002ae57620002ad620000cd565b5b600085015167ffffffffffffffff811115620002cf57620002ce620000d2565b5b620002dd8782880162000223565b9450506020620002f0878288016200027a565b935050604062000303878288016200027a565b925050606062000316878288016200027a565b91505092959194509250565b600081519050919050565b7f4e487b7100000000000000000000000000000000000000000000000000000000600052602260045260246000fd5b600060028204905060018216806200037557607f821691505b6020821081036200038b576200038a6200032d565b5b50919050565b60008190508160005260206000209050919050565b60006020601f8301049050919050565b600082821b905092915050565b600060088302620003f57fffffffffffffffffffffffffffffffffffffffffffffffffffffffffffffffff82620003b6565b620004018683620003b6565b95508019841693508086168417925050509392505050565b6000819050919050565b6000620004446200043e620004388462000256565b62000419565b62000256565b9050919050565b6000819050919050565b620004608362000423565b620004786200046f826200044b565b848454620003c3565b825550505050565b600090565b6200048f62000480565b6200049c81848462000455565b505050565b5b81811015620004c457620004b860008262000485565b600181019050620004a2565b5050565b601f8211156200051357620004dd8162000391565b620004e884620003a6565b81016020851015620004f8578190505b620005106200050785620003a6565b830182620004a1565b50505b505050565b600082821c905092915050565b6000620005386000198460080262000518565b1980831691505092915050565b600062000553838362000525565b9150826002028217905092915050565b6200056e8262000322565b67ffffffffffffffff8111156200058a5762000589620000f2565b5b6200059682546200035c565b620005a3828285620004c8565b600060209050601f831160018114620005db5760008415620005c6578287015190505b620005d2858262000545565b86555062000642565b601f198416620005eb8662000391565b60005b828110156200061557848901518255600182019150602085019450602081019050620005ee565b8683101562000635578489015162000631601f89168262000525565b8355505b6001600288020188555050505b505050505050565b611d8b806200065a6000396000f3fe608060405234801561001057600080fd5b506004361061010b5760003560e01c80639597fe9f116100a2578063b385816511610071578063b3858165146102a0578063c9d64746146102be578063e744c81a146102ee578063fb3bf3481461030a578063fb3c9455146103285761010b565b80639597fe9f1461022c578063a5b7d9841461024a578063a6f9dae114610266578063af648929146102825761010b565b806364148056116100de578063641480561461018c5780637f7650eb146101be5780638da5cb5b146101dc57806393119a83146101fa5761010b565b806317fc45e21461011057806323bc839b1461012e578063300c601c1461015057806349cdc87c14610182575b600080fd5b61011861035a565b6040516101259190610eff565b60405180910390f35b610136610360565b604051610147959493929190610fc5565b60405180910390f35b61016a6004803603810190610165919061105f565b610420565b6040516101799392919061108c565b60405180910390f35b61018a61053e565b005b6101a660048036038101906101a19190611128565b6106d5565b6040516101b593929190611168565b60405180910390f35b6101c6610794565b6040516101d391906111a6565b60405180910390f35b6101e4610822565b6040516101f191906111d7565b60405180910390f35b610214600480360381019061020f919061105f565b610846565b6040516102239392919061108c565b60405180910390f35b6102346108f8565b6040516102419190610eff565b60405180910390f35b610264600480360381019061025f9190611327565b6108fe565b005b610280600480360381019061027b9190611383565b610a47565b005b61028a610b18565b6040516102979190610eff565b60405180910390f35b6102a8610b1e565b6040516102b591906113b0565b60405180910390f35b6102d860048036038101906102d391906113cb565b610b31565b6040516102e59190610eff565b60405180910390f35b61030860048036038101906103039190611462565b610d34565b005b610312610e14565b60405161031f9190610eff565b60405180910390f35b610342600480360381019061033d91906114e5565b610e1a565b60405161035193929190611168565b60405180910390f35b60025481565b60606000806000806001600254600354600454600560009054906101000a900460ff1684805461038f90611567565b80601f01602080910402602001604051908101604052809291908181526020018280546103bb90611567565b80156104085780601f106103dd57610100808354040283529160200191610408565b820191906000526020600020905b8154815290600101906020018083116103eb57829003601f168201915b50505050509450945094509450945094509091929394565b60606000806009548410610469576040517f08c379a0000000000000000000000000000000000000000000000000000000008152600401610460906115e4565b60405180910390fd5b60006008600086815260200190815260200160002090508060000181600101548260020160006004548152602001908152602001600020600001548280546104b090611567565b80601f01602080910402602001604051908101604052809291908181526020018280546104dc90611567565b80156105295780601f106104fe57610100808354040283529160200191610529565b820191906000526020600020905b81548152906001019060200180831161050c57829003601f168201915b50505050509250935093509350509193909250565b60008054906101000a900473ffffffffffffffffffffffffffffffffffffffff1673ffffffffffffffffffffffffffffffffffffffff163373ffffffffffffffffffffffffffffffffffffffff16146105cc576040517f08c379a00000000000000000000000000000000000000000000000000000000081526004016105c390611676565b60405180910390fd5b6000805b600254811015610671576000600660003373ffffffffffffffffffffffffffffffffffffffff1673ffffffffffffffffffffffffffffffffffffffff16815260200190815260200160002060008381526020019081526020016000209050600081600001541480610645575042816000015410155b1561065d5780600101548361065a91906116c5565b92505b508080610669906116f9565b9150506105d0565b506002548110156106b7576040517f08c379a00000000000000000000000000000000000000000000000000000000081526004016106ae9061178d565b60405180910390fd5b6001600560006101000a81548160ff02191690831515021790555050565b60066020528160005260406000206020528060005260406000206000915091505080600001549080600101549080600201805461071190611567565b80601f016020809104026020016040519081016040528092919081815260200182805461073d90611567565b801561078a5780601f1061075f5761010080835404028352916020019161078a565b820191906000526020600020905b81548152906001019060200180831161076d57829003601f168201915b5050505050905083565b600180546107a190611567565b80601f01602080910402602001604051908101604052809291908181526020018280546107cd90611567565b801561081a5780601f106107ef5761010080835404028352916020019161081a565b820191906000526020600020905b8154815290600101906020018083116107fd57829003601f168201915b505050505081565b60008054906101000a900473ffffffffffffffffffffffffffffffffffffffff1681565b600860205280600052604060002060009150905080600001805461086990611567565b80601f016020809104026020016040519081016040528092919081815260200182805461089590611567565b80156108e25780601f106108b7576101008083540402835291602001916108e2565b820191906000526020600020905b8154815290600101906020018083116108c557829003601f168201915b5050505050908060010154908060050154905083565b60045481565b60006008600060095481526020019081526020016000209050828160000190816109289190611959565b50818160010181905550600081600501819055506009600081548092919061094f906116f9565b919050555060005b6002548110156109e2576040518060600160405280600081526020016000815260200160405180602001604052806000815250815250826002016000838152602001908152602001600020600082015181600001556020820151816001015560408201518160020190816109cb9190611959565b5090505080806109da906116f9565b915050610957565b5060005b600254811015610a415760405180602001604052806000815250826003016001604051610a139190611ab9565b90815260200160405180910390209081610a2d9190611959565b508080610a39906116f9565b9150506109e6565b50505050565b60008054906101000a900473ffffffffffffffffffffffffffffffffffffffff1673ffffffffffffffffffffffffffffffffffffffff163373ffffffffffffffffffffffffffffffffffffffff1614610ad5576040517f08c379a0000000000000000000000000000000000000000000000000000000008152600401610acc90611b42565b60405180910390fd5b806000806101000a81548173ffffffffffffffffffffffffffffffffffffffff021916908373ffffffffffffffffffffffffffffffffffffffff16021790555050565b60035481565b600560009054906101000a900460ff1681565b6000808686868686604051602001610b4d959493929190611bfc565b6040516020818303038152906040528051906020012060001c90506000600760003373ffffffffffffffffffffffffffffffffffffffff1673ffffffffffffffffffffffffffffffffffffffff16815260200190815260200160002060008881526020019081526020016000206000838152602001908152602001600020600001541480610c3f575042600760003373ffffffffffffffffffffffffffffffffffffffff1673ffffffffffffffffffffffffffffffffffffffff168152602001908152602001600020600088815260200190815260200160002060008381526020019081526020016000206000015410155b610c7e576040517f08c379a0000000000000000000000000000000000000000000000000000000008152600401610c7590611ca3565b60405180910390fd5b604051806060016040528086815260200185815260200184815250600760003373ffffffffffffffffffffffffffffffffffffffff1673ffffffffffffffffffffffffffffffffffffffff1681526020019081526020016000206000888152602001908152602001600020600083815260200190815260200160002060008201518160000155602082015181600101556040820151816002019081610d239190611959565b509050508091505095945050505050565b428311610d76576040517f08c379a0000000000000000000000000000000000000000000000000000000008152600401610d6d90611d35565b60405180910390fd5b604051806060016040528084815260200183815260200182815250600660003373ffffffffffffffffffffffffffffffffffffffff1673ffffffffffffffffffffffffffffffffffffffff168152602001908152602001600020600086815260200190815260200160002060008201518160000155602082015181600101556040820151816002019081610e0a9190611959565b5090505050505050565b60095481565b60076020528260005260406000206020528160005260406000206020528060005260406000206000925092505050806000015490806001015490806002018054610e6390611567565b80601f0160208091040260200160405190810160405280929190818152602001828054610e8f90611567565b8015610edc5780601f10610eb157610100808354040283529160200191610edc565b820191906000526020600020905b815481529060010190602001808311610ebf57829003601f168201915b5050505050905083565b6000819050919050565b610ef981610ee6565b82525050565b6000602082019050610f146000830184610ef0565b92915050565b600081519050919050565b600082825260208201905092915050565b60005b83811015610f54578082015181840152602081019050610f39565b60008484015250505050565b6000601f19601f8301169050919050565b6000610f7c82610f1a565b610f868185610f25565b9350610f96818560208601610f36565b610f9f81610f60565b840191505092915050565b60008115159050919050565b610fbf81610faa565b82525050565b600060a0820190508181036000830152610fdf8188610f71565b9050610fee6020830187610ef0565b610ffb6040830186610ef0565b6110086060830185610ef0565b6110156080830184610fb6565b9695505050505050565b6000604051905090565b600080fd5b600080fd5b61103c81610ee6565b811461104757600080fd5b50565b60008135905061105981611033565b92915050565b60006020828403121561107557611074611029565b5b60006110838482850161104a565b91505092915050565b600060608201905081810360008301526110a68186610f71565b90506110b56020830185610ef0565b6110c26040830184610ef0565b949350505050565b600073ffffffffffffffffffffffffffffffffffffffff82169050919050565b60006110f5826110ca565b9050919050565b611105816110ea565b811461111057600080fd5b50565b600081359050611122816110fc565b92915050565b6000806040838503121561113f5761113e611029565b5b600061114d85828601611113565b925050602061115e8582860161104a565b9150509250929050565b600060608201905061117d6000830186610ef0565b61118a6020830185610ef0565b818103604083015261119c8184610f71565b9050949350505050565b600060208201905081810360008301526111c08184610f71565b905092915050565b6111d1816110ea565b82525050565b60006020820190506111ec60008301846111c8565b92915050565b600080fd5b600080fd5b7f4e487b7100000000000000000000000000000000000000000000000000000000600052604160045260246000fd5b61123482610f60565b810181811067ffffffffffffffff82111715611253576112526111fc565b5b80604052505050565b600061126661101f565b9050611272828261122b565b919050565b600067ffffffffffffffff821115611292576112916111fc565b5b61129b82610f60565b9050602081019050919050565b82818337600083830152505050565b60006112ca6112c584611277565b61125c565b9050828152602081018484840111156112e6576112e56111f7565b5b6112f18482856112a8565b509392505050565b600082601f83011261130e5761130d6111f2565b5b813561131e8482602086016112b7565b91505092915050565b6000806040838503121561133e5761133d611029565b5b600083013567ffffffffffffffff81111561135c5761135b61102e565b5b611368858286016112f9565b92505060206113798582860161104a565b9150509250929050565b60006020828403121561139957611398611029565b5b60006113a784828501611113565b91505092915050565b60006020820190506113c56000830184610fb6565b92915050565b600080600080600060a086880312156113e7576113e6611029565b5b60006113f588828901611113565b95505060206114068882890161104a565b94505060406114178882890161104a565b93505060606114288882890161104a565b925050608086013567ffffffffffffffff8111156114495761144861102e565b5b611455888289016112f9565b9150509295509295909350565b6000806000806080858703121561147c5761147b611029565b5b600061148a8782880161104a565b945050602061149b8782880161104a565b93505060406114ac8782880161104a565b925050606085013567ffffffffffffffff8111156114cd576114cc61102e565b5b6114d9878288016112f9565b91505092959194509250565b6000806000606084860312156114fe576114fd611029565b5b600061150c86828701611113565b935050602061151d8682870161104a565b925050604061152e8682870161104a565b9150509250925092565b7f4e487b7100000000000000000000000000000000000000000000000000000000600052602260045260246000fd5b6000600282049050600182168061157f57607f821691505b60208210810361159257611591611538565b5b50919050565b7f496e76616c69642070617469656e742049442e00000000000000000000000000600082015250565b60006115ce601383610f25565b91506115d982611598565b602082019050919050565b600060208201905081810360008301526115fd816115c1565b9050919050565b7f4f6e6c7920746865206f776e65722063616e20617070726f766520746865207360008201527f616c652e00000000000000000000000000000000000000000000000000000000602082015250565b6000611660602483610f25565b915061166b82611604565b604082019050919050565b6000602082019050818103600083015261168f81611653565b9050919050565b7f4e487b7100000000000000000000000000000000000000000000000000000000600052601160045260246000fd5b60006116d082610ee6565b91506116db83610ee6565b92508282019050808211156116f3576116f2611696565b5b92915050565b600061170482610ee6565b91507fffffffffffffffffffffffffffffffffffffffffffffffffffffffffffffffff820361173657611735611696565b5b600182019050919050565b7f4e6f7420656e6f7567682076616c696420707265736372697074696f6e732e00600082015250565b6000611777601f83610f25565b915061178282611741565b602082019050919050565b600060208201905081810360008301526117a68161176a565b9050919050565b60008190508160005260206000209050919050565b60006020601f8301049050919050565b600082821b905092915050565b60006008830261180f7fffffffffffffffffffffffffffffffffffffffffffffffffffffffffffffffff826117d2565b61181986836117d2565b95508019841693508086168417925050509392505050565b6000819050919050565b600061185661185161184c84610ee6565b611831565b610ee6565b9050919050565b6000819050919050565b6118708361183b565b61188461187c8261185d565b8484546117df565b825550505050565b600090565b61189961188c565b6118a4818484611867565b505050565b5b818110156118c8576118bd600082611891565b6001810190506118aa565b5050565b601f82111561190d576118de816117ad565b6118e7846117c2565b810160208510156118f6578190505b61190a611902856117c2565b8301826118a9565b50505b505050565b600082821c905092915050565b600061193060001984600802611912565b1980831691505092915050565b6000611949838361191f565b9150826002028217905092915050565b61196282610f1a565b67ffffffffffffffff81111561197b5761197a6111fc565b5b6119858254611567565b6119908282856118cc565b600060209050601f8311600181146119c357600084156119b1578287015190505b6119bb858261193d565b865550611a23565b601f1984166119d1866117ad565b60005b828110156119f9578489015182556001820191506020850194506020810190506119d4565b86831015611a165784890151611a12601f89168261191f565b8355505b6001600288020188555050505b505050505050565b600081905092915050565b60008154611a4381611567565b611a4d8186611a2b565b94506001821660008114611a685760018114611a7d57611ab0565b60ff1983168652811515820286019350611ab0565b611a86856117ad565b60005b83811015611aa857815481890152600182019150602081019050611a89565b838801955050505b50505092915050565b6000611ac58284611a36565b915081905092915050565b7f4f6e6c79207468652063757272656e74206f776e65722063616e206368616e6760008201527f6520746865206f776e65722e0000000000000000000000000000000000000000602082015250565b6000611b2c602c83610f25565b9150611b3782611ad0565b604082019050919050565b60006020820190508181036000830152611b5b81611b1f565b9050919050565b60008160601b9050919050565b6000611b7a82611b62565b9050919050565b6000611b8c82611b6f565b9050919050565b611ba4611b9f826110ea565b611b81565b82525050565b6000819050919050565b611bc5611bc082610ee6565b611baa565b82525050565b6000611bd682610f1a565b611be08185611a2b565b9350611bf0818560208601610f36565b80840191505092915050565b6000611c088288611b93565b601482019150611c188287611bb4565b602082019150611c288286611bb4565b602082019150611c388285611bb4565b602082019150611c488284611bcb565b91508190509695505050505050565b7f507265736372697074696f6e2068617320657870697265642e00000000000000600082015250565b6000611c8d601983610f25565b9150611c9882611c57565b602082019050919050565b60006020820190508181036000830152611cbc81611c80565b9050919050565b7f4578706972792064617465206d75737420626520696e2074686520667574757260008201527f652e000000000000000000000000000000000000000000000000000000000000602082015250565b6000611d1f602283610f25565b9150611d2a82611cc3565b604082019050919050565b60006020820190508181036000830152611d4e81611d12565b905091905056fea2646970667358221220734c186ec6681f379c102970c1cb134fcdeea81596051794eb0f840c1dcc91dc64736f6c63430008130033",
  "immutableReferences": {},
  "source": "// SPDX-License-Identifier: MIT\r\npragma solidity ^0.8.19;\r\n\r\ncontract ProductLot {\r\n    address public owner;\r\n    string public productName;\r\n    uint public quantity;\r\n    uint public productionDate;\r\n    uint public lotNumber;\r\n    bool public approvedForSale;\r\n\r\n    struct Prescription {\r\n        uint expiryDate;\r\n        uint quantity;\r\n        string drugName;\r\n\r\n    }\r\n\r\n    mapping(address => mapping(uint => Prescription)) public prescriptions; // mapping of prescription details for each drug\r\n    mapping(address => mapping(uint => mapping(uint => Prescription))) public patientPrescriptions; // mapping of prescription details for each patient\r\n\r\n    mapping(uint => Patient) public patients; // mapping of patient details for each patient\r\n    uint public numPatients; // mapping of prescription details for each patient\r\n\r\n\r\n    struct Patient {\r\n        string name;\r\n        uint age;\r\n        mapping(uint => Prescription) prescriptions; // mapping of prescription details for each drug\r\n        mapping(string => string) medicalRecords; // nested mapping for medical records\r\n        mapping(uint => Patient) patients; // mapping of patient details for each patient\r\n        uint numPatients;\r\n    }\r\n\r\n    constructor(string memory _productName, uint _quantity, uint _productionDate, uint _lotNumber) {\r\n        owner = msg.sender;\r\n        productName = _productName;\r\n        quantity = _quantity;\r\n        productionDate = _productionDate;\r\n        lotNumber = _lotNumber;\r\n        approvedForSale = false;\r\n    }\r\n\r\n    function changeOwner(address newOwner) public {\r\n        require(msg.sender == owner, \"Only the current owner can change the owner.\");\r\n        owner = newOwner;\r\n    }\r\n\r\n    function getProductDetails() public view returns (string memory, uint, uint, uint, bool) {\r\n        return (productName, quantity, productionDate, lotNumber, approvedForSale);\r\n    }\r\n\r\n    function approveSale() public {\r\n        require(msg.sender == owner, \"Only the owner can approve the sale.\");\r\n        uint totalPrescriptionQuantity = 0;\r\n        for (uint i = 0; i < quantity; i++) {\r\n            Prescription storage prescription = prescriptions[msg.sender][i];\r\n            if (prescription.expiryDate == 0 || prescription.expiryDate >= block.timestamp) {\r\n                totalPrescriptionQuantity += prescription.quantity;\r\n            }\r\n        }\r\n        require(totalPrescriptionQuantity >= quantity, \"Not enough valid prescriptions.\");\r\n        approvedForSale = true;\r\n    }\r\n\r\n    function setPrescriptionExpiryDate(uint drugIndex, uint _expiryDate, uint _quantity, string memory _drugName) public {\r\n    require(_expiryDate > block.timestamp, \"Expiry date must be in the future.\");\r\n    prescriptions[msg.sender][drugIndex] = Prescription(_expiryDate, _quantity, _drugName);\r\n}\r\n\r\nfunction checkPrescription(address patient, uint drugIndex, uint _expiryDate, uint _quantity, string memory _drugName) public returns (uint) {\r\n    uint patientId = uint(keccak256(abi.encodePacked(patient, drugIndex, _expiryDate, _quantity, _drugName)));\r\n    require(patientPrescriptions[msg.sender][drugIndex][patientId].expiryDate == 0 || patientPrescriptions[msg.sender][drugIndex][patientId].expiryDate >= block.timestamp, \"Prescription has expired.\");\r\n    patientPrescriptions[msg.sender][drugIndex][patientId] = Prescription(_expiryDate, _quantity, _drugName);\r\n    return patientId;\r\n}\r\n\r\n\r\n\r\n\r\n\r\n    function getPatientDetails(uint patientId) public view returns (string memory, uint, uint) {\r\n        require(patientId < numPatients, \"Invalid patient ID.\");\r\n        Patient storage patient = patients[patientId];\r\n        return (patient.name, patient.age, patient.prescriptions[lotNumber].expiryDate);\r\n    }\r\n\r\n    function addPatient(string memory name, uint age) public {\r\n    Patient storage newPatient = patients[numPatients];\r\n    newPatient.name = name;\r\n    newPatient.age = age;\r\n    newPatient.numPatients = 0;\r\n    \r\n    numPatients++;\r\n    \r\n    // Initialize empty mappings for prescriptions and medical records\r\n    for (uint i = 0; i < quantity; i++) {\r\n    newPatient.prescriptions[i] = Prescription(0, 0, \"\");\r\n}\r\nfor (uint i = 0; i < quantity; i++) {\r\n    newPatient.medicalRecords[productName] = \"\";\r\n}\r\n\r\n}\r\n\r\n\r\n\r\n}\r\n",
  "sourcePath": "C:\\Users\\PRANAV DEV KHINDRA\\SampleProject\\contracts\\test.sol",
  "compiler": {
    "name": "solc",
    "version": "0.8.19+commit.7dd6d404.Emscripten.clang"
  },
  "schemaVersion": "3.4.12",
  "updatedAt": "2023-02-26T06:00:42.420Z",
  "devdoc": {
    "kind": "dev",
    "methods": {},
    "version": 1
  },
  "userdoc": {
    "kind": "user",
    "methods": {},
    "version": 1
  }
}